{
  "contractName": "SimpleStorage",
  "abi": [
    {
      "anonymous": false,
      "inputs": [
        {
          "indexed": false,
          "internalType": "uint256",
          "name": "_val",
          "type": "uint256"
        }
      ],
      "name": "valueChanged",
      "type": "event"
    },
    {
      "inputs": [],
      "name": "greeter",
      "outputs": [
        {
          "internalType": "string",
          "name": "",
          "type": "string"
        }
      ],
      "stateMutability": "view",
      "type": "function",
      "constant": true
    },
    {
      "inputs": [],
      "name": "greet",
      "outputs": [
        {
          "internalType": "string",
          "name": "",
          "type": "string"
        }
      ],
      "stateMutability": "view",
      "type": "function",
      "constant": true
    },
    {
      "inputs": [
        {
          "internalType": "string",
          "name": "newValue",
          "type": "string"
        }
      ],
      "name": "setGreet",
      "outputs": [],
      "stateMutability": "nonpayable",
      "type": "function"
    },
    {
      "inputs": [],
      "name": "read",
      "outputs": [
        {
          "internalType": "uint256",
          "name": "",
          "type": "uint256"
        }
      ],
      "stateMutability": "view",
      "type": "function",
      "constant": true
    },
    {
      "inputs": [
        {
          "internalType": "uint256",
          "name": "newValue",
          "type": "uint256"
        }
      ],
      "name": "write",
      "outputs": [],
      "stateMutability": "nonpayable",
      "type": "function"
    }
  ],
  "bytecode": "0x608060405234801561001057600080fd5b50610850806100206000396000f3fe608060405234801561001057600080fd5b50600436106100575760003560e01c80631c8499e51461005c5780632f048afa1461007a57806357de26a4146100965780639698086b146100b4578063cfae3217146100d0575b600080fd5b6100646100ee565b60405161007191906102fb565b60405180910390f35b610094600480360381019061008f9190610367565b61017c565b005b61009e6101bd565b6040516100ab91906103a3565b60405180910390f35b6100ce60048036038101906100c991906104f3565b6101c6565b005b6100d86101d9565b6040516100e591906102fb565b60405180910390f35b600180546100fb9061056b565b80601f01602080910402602001604051908101604052809291908181526020018280546101279061056b565b80156101745780601f1061014957610100808354040283529160200191610174565b820191906000526020600020905b81548152906001019060200180831161015757829003601f168201915b505050505081565b806000819055507fc0dd44d3f117c96295a84b2eb7b3f6abe929928d111b030bfb3568f5efa0ff1f816040516101b291906103a3565b60405180910390a150565b60008054905090565b80600190816101d59190610748565b5050565b6060600180546101e89061056b565b80601f01602080910402602001604051908101604052809291908181526020018280546102149061056b565b80156102615780601f1061023657610100808354040283529160200191610261565b820191906000526020600020905b81548152906001019060200180831161024457829003601f168201915b5050505050905090565b600081519050919050565b600082825260208201905092915050565b60005b838110156102a557808201518184015260208101905061028a565b60008484015250505050565b6000601f19601f8301169050919050565b60006102cd8261026b565b6102d78185610276565b93506102e7818560208601610287565b6102f0816102b1565b840191505092915050565b6000602082019050818103600083015261031581846102c2565b905092915050565b6000604051905090565b600080fd5b600080fd5b6000819050919050565b61034481610331565b811461034f57600080fd5b50565b6000813590506103618161033b565b92915050565b60006020828403121561037d5761037c610327565b5b600061038b84828501610352565b91505092915050565b61039d81610331565b82525050565b60006020820190506103b86000830184610394565b92915050565b600080fd5b600080fd5b7f4e487b7100000000000000000000000000000000000000000000000000000000600052604160045260246000fd5b610400826102b1565b810181811067ffffffffffffffff8211171561041f5761041e6103c8565b5b80604052505050565b600061043261031d565b905061043e82826103f7565b919050565b600067ffffffffffffffff82111561045e5761045d6103c8565b5b610467826102b1565b9050602081019050919050565b82818337600083830152505050565b600061049661049184610443565b610428565b9050828152602081018484840111156104b2576104b16103c3565b5b6104bd848285610474565b509392505050565b600082601f8301126104da576104d96103be565b5b81356104ea848260208601610483565b91505092915050565b60006020828403121561050957610508610327565b5b600082013567ffffffffffffffff8111156105275761052661032c565b5b610533848285016104c5565b91505092915050565b7f4e487b7100000000000000000000000000000000000000000000000000000000600052602260045260246000fd5b6000600282049050600182168061058357607f821691505b6020821081036105965761059561053c565b5b50919050565b60008190508160005260206000209050919050565b60006020601f8301049050919050565b600082821b905092915050565b6000600883026105fe7fffffffffffffffffffffffffffffffffffffffffffffffffffffffffffffffff826105c1565b61060886836105c1565b95508019841693508086168417925050509392505050565b6000819050919050565b600061064561064061063b84610331565b610620565b610331565b9050919050565b6000819050919050565b61065f8361062a565b61067361066b8261064c565b8484546105ce565b825550505050565b600090565b61068861067b565b610693818484610656565b505050565b5b818110156106b7576106ac600082610680565b600181019050610699565b5050565b601f8211156106fc576106cd8161059c565b6106d6846105b1565b810160208510156106e5578190505b6106f96106f1856105b1565b830182610698565b50505b505050565b600082821c905092915050565b600061071f60001984600802610701565b1980831691505092915050565b6000610738838361070e565b9150826002028217905092915050565b6107518261026b565b67ffffffffffffffff81111561076a576107696103c8565b5b610774825461056b565b61077f8282856106bb565b600060209050601f8311600181146107b257600084156107a0578287015190505b6107aa858261072c565b865550610812565b601f1984166107c08661059c565b60005b828110156107e8578489015182556001820191506020850194506020810190506107c3565b868310156108055784890151610801601f89168261070e565b8355505b6001600288020188555050505b50505050505056fea26469706673582212207cdc2fd8bf0e4b6f32342fca970a657b8dfd04f8099d5108f077acada98e738864736f6c63430008120033",
  "immutableReferences": {},
  "source": "// SPDX-License-Identifier: MIT\npragma solidity >=0.4.22 <0.9.0;\n\ncontract SimpleStorage {\n  uint256 value;\n  string public greeter;\n\n  event valueChanged(uint _val);\n\n  function greet() public view returns (string memory) {\n    return greeter;\n  }\n\n  function setGreet(string memory newValue) public {\n    greeter = newValue;\n  }\n\n  function read() public view returns (uint256) {\n    return value;\n  }\n\n  function write(uint256 newValue) public {\n    value = newValue;\n    emit valueChanged(newValue);\n  }\n}\n",
  "sourcePath": "/Users/arnaudsene/Documents/Code/blockchain/web3js/course/truffle-react/truffle/contracts/SimpleStorage.sol",
  "compiler": {
    "name": "solc",
    "version": "0.8.18+commit.87f61d96.Emscripten.clang"
  },
  "schemaVersion": "3.4.14",
  "updatedAt": "2023-06-19T16:14:49.740Z",
  "networkType": "ethereum",
  "devdoc": {
    "kind": "dev",
    "methods": {},
    "version": 1
  },
  "userdoc": {
    "kind": "user",
    "methods": {},
    "version": 1
  }
}